{
  "contractName": "Casino",
  "abi": [
    {
      "constant": false,
      "inputs": [],
      "name": "generateNumberWinner",
      "outputs": [],
      "payable": false,
      "stateMutability": "nonpayable",
      "type": "function"
    },
    {
      "constant": true,
      "inputs": [
        {
          "name": "player",
          "type": "address"
        }
      ],
      "name": "checkPlayerExists",
      "outputs": [
        {
          "name": "",
          "type": "bool"
        }
      ],
      "payable": false,
      "stateMutability": "view",
      "type": "function"
    },
    {
      "constant": false,
      "inputs": [],
      "name": "kill",
      "outputs": [],
      "payable": false,
      "stateMutability": "nonpayable",
      "type": "function"
    },
    {
      "constant": false,
      "inputs": [],
      "name": "resetData",
      "outputs": [],
      "payable": false,
      "stateMutability": "nonpayable",
      "type": "function"
    },
    {
      "constant": false,
      "inputs": [
        {
          "name": "numberWinner",
          "type": "uint256"
        }
      ],
      "name": "distributePrizes",
      "outputs": [],
      "payable": false,
      "stateMutability": "nonpayable",
      "type": "function"
    },
    {
      "constant": false,
      "inputs": [
        {
          "name": "number",
          "type": "uint256"
        }
      ],
      "name": "bet",
      "outputs": [],
      "payable": true,
      "stateMutability": "payable",
      "type": "function"
    },
    {
      "inputs": [
        {
          "name": "_minimumBet",
          "type": "uint256"
        }
      ],
      "payable": false,
      "stateMutability": "nonpayable",
      "type": "constructor"
    },
    {
      "payable": true,
      "stateMutability": "payable",
      "type": "fallback"
    }
  ],
  "bytecode": "0x60606040526064600455341561001457600080fd5b6040516020806107db83398101604052808051906020019091905050336000806101000a81548173ffffffffffffffffffffffffffffffffffffffff021916908373ffffffffffffffffffffffffffffffffffffffff16021790555060008114151561007e578090505b5061074d8061008e6000396000f300606060405260043610610078576000357c0100000000000000000000000000000000000000000000000000000000900463ffffffff1680630a50e3611461007a5780634081d9161461008f57806341c0e1b5146100e0578063478c4e0e146100f55780636ca3fc3b1461010a5780637365870b1461012d575b005b341561008557600080fd5b61008d610145565b005b341561009a57600080fd5b6100c6600480803573ffffffffffffffffffffffffffffffffffffffff16906020019091905050610165565b604051808215151515815260200191505060405180910390f35b34156100eb57600080fd5b6100f3610209565b005b341561010057600080fd5b61010861029a565b005b341561011557600080fd5b61012b60048080359060200190919050506102bc565b005b61014360048080359060200190919050506104f1565b005b60006001600a4381151561015557fe5b06019050610162816102bc565b50565b600080600090505b6005805490508110156101fe578273ffffffffffffffffffffffffffffffffffffffff166005828154811015156101a057fe5b906000526020600020900160009054906101000a900473ffffffffffffffffffffffffffffffffffffffff1673ffffffffffffffffffffffffffffffffffffffff1614156101f15760019150610203565b808060010191505061016d565b600091505b50919050565b6000809054906101000a900473ffffffffffffffffffffffffffffffffffffffff1673ffffffffffffffffffffffffffffffffffffffff163373ffffffffffffffffffffffffffffffffffffffff161415610298576000809054906101000a900473ffffffffffffffffffffffffffffffffffffffff1673ffffffffffffffffffffffffffffffffffffffff16ff5b565b60006005816102a99190610665565b5060006002819055506000600381905550565b6102c4610691565b6000806000806000809450600093505b600580549050841015610416576005848154811015156102f057fe5b906000526020600020900160009054906101000a900473ffffffffffffffffffffffffffffffffffffffff16925086600660008573ffffffffffffffffffffffffffffffffffffffff1673ffffffffffffffffffffffffffffffffffffffff1681526020019081526020016000206001015414156103b75782868660648110151561037757fe5b602002019073ffffffffffffffffffffffffffffffffffffffff16908173ffffffffffffffffffffffffffffffffffffffff168152505084806001019550505b600660008473ffffffffffffffffffffffffffffffffffffffff1673ffffffffffffffffffffffffffffffffffffffff1681526020019081526020016000206000808201600090556001820160009055505083806001019450506102d4565b60006005816104259190610665565b506002549150600090505b848110156104e057600073ffffffffffffffffffffffffffffffffffffffff16868260648110151561045e57fe5b602002015173ffffffffffffffffffffffffffffffffffffffff161415156104d357858160648110151561048e57fe5b602002015173ffffffffffffffffffffffffffffffffffffffff166108fc839081150290604051600060405180830381858888f1935050505015156104d257600080fd5b5b8080600101915050610430565b6104e861029a565b50505050505050565b600015156104fe33610165565b151514151561050c57600080fd5b6001811015801561051e5750600a8111155b151561052957600080fd5b600154341015151561053a57600080fd5b34600660003373ffffffffffffffffffffffffffffffffffffffff1673ffffffffffffffffffffffffffffffffffffffff1681526020019081526020016000206000018190555080600660003373ffffffffffffffffffffffffffffffffffffffff1673ffffffffffffffffffffffffffffffffffffffff168152602001908152602001600020600101819055506001600360008282540192505081905550600580548060010182816105ed91906106d0565b9160005260206000209001600033909190916101000a81548173ffffffffffffffffffffffffffffffffffffffff021916908373ffffffffffffffffffffffffffffffffffffffff160217905550503460026000828254019250508190555060045460035410151561066257610661610145565b5b50565b81548183558181151161068c5781836000526020600020918201910161068b91906106fc565b5b505050565b610c80604051908101604052806064905b600073ffffffffffffffffffffffffffffffffffffffff168152602001906001900390816106a25790505090565b8154818355818115116106f7578183600052602060002091820191016106f691906106fc565b5b505050565b61071e91905b8082111561071a576000816000905550600101610702565b5090565b905600a165627a7a723058208241e4bdb8184ce6f411046609406fcf1801ee49e1f15acca7a4ee36a463bb9a0029",
  "source": "pragma solidity ^0.4.17;\n\ncontract Casino {\n\taddress owner;\n\n\n\tuint minimumBet;\n\tuint totalBet;\n\tuint numberOfBets;\n\tuint maxAmountOfBets = 100;\n\taddress[] players;\n\n\tstruct Player {\n\t\tuint amountBet;\n\t\tuint numberSelected;\n\t}\n\n\tmapping(address => Player) playerInfo;\n\n\tfunction Casino(uint _minimumBet) public {\n\t\towner = msg.sender;\n\t\tif(_minimumBet != 0) _minimumBet = _minimumBet;\n\t}\n\n\tfunction kill() public {\n\t\tif(msg.sender == owner) {\n\t\t\tselfdestruct(owner);\n\t\t}\n\t}\n\n\tfunction bet(uint number) public payable {\n\t\trequire(checkPlayerExists(msg.sender) == false);\n\t\trequire(number >= 1 && number <= 10);\n\t\trequire(msg.value >= minimumBet);\n\t\tplayerInfo[msg.sender].amountBet = msg.value;\n\t\tplayerInfo[msg.sender].numberSelected = number;\n\t\tnumberOfBets += 1;\n\t\tplayers.push(msg.sender);\n\t\ttotalBet += msg.value;\n\t\tif (numberOfBets >= maxAmountOfBets) generateNumberWinner();\n\t}\n\n\n\tfunction checkPlayerExists(address player) public constant returns (bool) {\n\t\tfor (uint i = 0; i < players.length; i++) {\n\t\t\tif(players[i] == player) return true;\n\t\t}\n\t\treturn false;\n\t}\n\n\tfunction generateNumberWinner() public {\n\t\tuint numberGenerated = block.number % 10 + 1;\n\t\tdistributePrizes(numberGenerated);\n\t}\n\n\tfunction distributePrizes(uint numberWinner) public {\n\t\taddress[100] memory winners;\n\t\tuint count = 0;\n\n\t\tfor (uint i = 0; i < players.length; i++) {\n\t\t\taddress playerAddress = players[i];\n\t\t\tif(playerInfo[playerAddress].numberSelected == numberWinner) {\n\t\t\t\twinners[count] = playerAddress;\n\t\t\t\tcount++;\n\t\t\t}\n\t\t\tdelete playerInfo[playerAddress];\n\t\t}\n\t\tplayers.length = 0;\n\t\tuint winnerEtherAmount = totalBet;\n\t\tfor(uint j = 0; j < count; j ++) {\n\t\t\tif(winners[j] != address(0)) {\n\t\t\t\twinners[j].transfer(winnerEtherAmount);\n\t\t\t}\n\t\t}\n\t\tresetData();\n\t}\n\n\n\tfunction resetData() public {\n\t\tplayers.length = 0;\n\t\ttotalBet = 0;\n\t\tnumberOfBets = 0;\n\t}\n\n\n\tfunction() public payable {}\n}\n\n\n\n\n\n\n\n\n\n\n\n\n\n\n",
  "sourcePath": "/Users/kielbarry/Desktop/CasinoWithSolidityAndReact/contracts/Casino.sol",
  "compiler": {
    "name": "solc",
    "version": "0.4.18+commit.9cf6e910.Emscripten.clang"
  },
  "schemaVersion": "1.0.1",
  "updatedAt": "2018-01-19T21:15:45.757Z"
}